{
  "contractName": "ColdChain",
  "abi": [
    {
      "anonymous": false,
      "inputs": [
        {
          "indexed": false,
          "internalType": "address",
          "name": "entityId",
          "type": "address"
        },
        {
          "indexed": false,
          "internalType": "string",
          "name": "entityMode",
          "type": "string"
        }
      ],
      "name": "AddEntity",
      "type": "event"
    },
    {
      "anonymous": false,
      "inputs": [
        {
          "indexed": false,
          "internalType": "uint256",
          "name": "vaccineBatchId",
          "type": "uint256"
        },
        {
          "indexed": true,
          "internalType": "address",
          "name": "manufacturer",
          "type": "address"
        }
      ],
      "name": "AddVaccineBatch",
      "type": "event"
    },
    {
      "anonymous": false,
      "inputs": [
        {
          "indexed": true,
          "internalType": "address",
          "name": "issuer",
          "type": "address"
        },
        {
          "indexed": true,
          "internalType": "address",
          "name": "prover",
          "type": "address"
        },
        {
          "indexed": false,
          "internalType": "uint256",
          "name": "certificateId",
          "type": "uint256"
        }
      ],
      "name": "IssueCertificate",
      "type": "event"
    },
    {
      "inputs": [],
      "name": "MAX_CERTIFICATIONS",
      "outputs": [
        {
          "internalType": "uint256",
          "name": "",
          "type": "uint256"
        }
      ],
      "stateMutability": "view",
      "type": "function"
    },
    {
      "inputs": [
        {
          "internalType": "uint256",
          "name": "",
          "type": "uint256"
        }
      ],
      "name": "certificateIds",
      "outputs": [
        {
          "internalType": "uint256",
          "name": "",
          "type": "uint256"
        }
      ],
      "stateMutability": "view",
      "type": "function"
    },
    {
      "inputs": [
        {
          "internalType": "uint256",
          "name": "",
          "type": "uint256"
        }
      ],
      "name": "certificates",
      "outputs": [
        {
          "internalType": "uint256",
          "name": "id",
          "type": "uint256"
        },
        {
          "components": [
            {
              "internalType": "address",
              "name": "id",
              "type": "address"
            },
            {
              "internalType": "enum ColdChain.Mode",
              "name": "mode",
              "type": "uint8"
            },
            {
              "internalType": "uint256[]",
              "name": "certificateIds",
              "type": "uint256[]"
            }
          ],
          "internalType": "struct ColdChain.Entity",
          "name": "issuer",
          "type": "tuple"
        },
        {
          "components": [
            {
              "internalType": "address",
              "name": "id",
              "type": "address"
            },
            {
              "internalType": "enum ColdChain.Mode",
              "name": "mode",
              "type": "uint8"
            },
            {
              "internalType": "uint256[]",
              "name": "certificateIds",
              "type": "uint256[]"
            }
          ],
          "internalType": "struct ColdChain.Entity",
          "name": "prover",
          "type": "tuple"
        },
        {
          "internalType": "bytes",
          "name": "signature",
          "type": "bytes"
        },
        {
          "internalType": "enum ColdChain.Status",
          "name": "status",
          "type": "uint8"
        }
      ],
      "stateMutability": "view",
      "type": "function"
    },
    {
      "inputs": [
        {
          "internalType": "address",
          "name": "",
          "type": "address"
        }
      ],
      "name": "entities",
      "outputs": [
        {
          "internalType": "address",
          "name": "id",
          "type": "address"
        },
        {
          "internalType": "enum ColdChain.Mode",
          "name": "mode",
          "type": "uint8"
        }
      ],
      "stateMutability": "view",
      "type": "function"
    },
    {
      "inputs": [
        {
          "internalType": "uint256",
          "name": "",
          "type": "uint256"
        }
      ],
      "name": "vaccineBatchIds",
      "outputs": [
        {
          "internalType": "uint256",
          "name": "",
          "type": "uint256"
        }
      ],
      "stateMutability": "view",
      "type": "function"
    },
    {
      "inputs": [
        {
          "internalType": "uint256",
          "name": "",
          "type": "uint256"
        }
      ],
      "name": "vaccineBatches",
      "outputs": [
        {
          "internalType": "uint256",
          "name": "id",
          "type": "uint256"
        },
        {
          "internalType": "string",
          "name": "brand",
          "type": "string"
        },
        {
          "internalType": "address",
          "name": "manufacturer",
          "type": "address"
        }
      ],
      "stateMutability": "view",
      "type": "function"
    },
    {
      "inputs": [
        {
          "internalType": "address",
          "name": "_id",
          "type": "address"
        },
        {
          "internalType": "string",
          "name": "_mode",
          "type": "string"
        }
      ],
      "name": "addEntity",
      "outputs": [],
      "stateMutability": "nonpayable",
      "type": "function"
    },
    {
      "inputs": [
        {
          "internalType": "string",
          "name": "brand",
          "type": "string"
        },
        {
          "internalType": "address",
          "name": "manufacturer",
          "type": "address"
        }
      ],
      "name": "addVaccineBatch",
      "outputs": [
        {
          "internalType": "uint256",
          "name": "",
          "type": "uint256"
        }
      ],
      "stateMutability": "nonpayable",
      "type": "function"
    },
    {
      "inputs": [
        {
          "internalType": "address",
          "name": "_issuer",
          "type": "address"
        },
        {
          "internalType": "address",
          "name": "_prover",
          "type": "address"
        },
        {
          "internalType": "string",
          "name": "_status",
          "type": "string"
        },
        {
          "internalType": "uint256",
          "name": "vaccineBatchId",
          "type": "uint256"
        },
        {
          "internalType": "bytes",
          "name": "signature",
          "type": "bytes"
        }
      ],
      "name": "issueCertificate",
      "outputs": [
        {
          "internalType": "uint256",
          "name": "",
          "type": "uint256"
        }
      ],
      "stateMutability": "nonpayable",
      "type": "function"
    },
    {
      "inputs": [
        {
          "internalType": "bytes32",
          "name": "message",
          "type": "bytes32"
        },
        {
          "internalType": "uint256",
          "name": "id",
          "type": "uint256"
        },
        {
          "internalType": "address",
          "name": "issuer",
          "type": "address"
        }
      ],
      "name": "isMatchingSignature",
      "outputs": [
        {
          "internalType": "bool",
          "name": "",
          "type": "bool"
        }
      ],
      "stateMutability": "view",
      "type": "function"
    }
  ],
  "bytecode": "0x608060405234801561001057600080fd5b506125db806100206000396000f3fe608060405234801561001057600080fd5b506004361061009e5760003560e01c8063663b3e2211610066578063663b3e22146101845780637aefaf39146101b8578063b5bad46d146101e8578063c8d8184b14610204578063fc79b0a9146102345761009e565b806303a692b9146100a35780630f9c774d146100d55780631d8ee48a1461010557806345194c07146101365780634851a01d14610166575b600080fd5b6100bd60048036038101906100b89190611b7d565b610264565b6040516100cc9392919061228e565b60405180910390f35b6100ef60048036038101906100ea9190611b7d565b610346565b6040516100fc9190612273565b60405180910390f35b61011f600480360381019061011a91906119b6565b610367565b60405161012d92919061217a565b60405180910390f35b610150600480360381019061014b9190611ada565b6103b8565b60405161015d91906121d3565b60405180910390f35b61016e61072d565b60405161017b9190612273565b60405180910390f35b61019e60048036038101906101999190611b7d565b610732565b6040516101af9594939291906122cc565b60405180910390f35b6101d260048036038101906101cd9190611b7d565b6109d7565b6040516101df9190612273565b60405180910390f35b61020260048036038101906101fd9190611a86565b6109f8565b005b61021e600480360381019061021991906119df565b610bab565b60405161022b9190612273565b60405180910390f35b61024e60048036038101906102499190611b29565b6110fd565b60405161025b9190612273565b60405180910390f35b6002602052806000526040600020600091509050806000015490806001018054600181600116156101000203166002900480601f0160208091040260200160405190810160405280929190818152602001828054600181600116156101000203166002900480156103165780601f106102eb57610100808354040283529160200191610316565b820191906000526020600020905b8154815290600101906020018083116102f957829003601f168201915b5050505050908060020160009054906101000a900473ffffffffffffffffffffffffffffffffffffffff16905083565b6000818154811061035357fe5b906000526020600020016000915090505481565b60046020528060005260406000206000915090508060000160009054906101000a900473ffffffffffffffffffffffffffffffffffffffff16908060000160149054906101000a900460ff16905082565b60006103c261169f565b600360008581526020019081526020016000206040518060a001604052908160008201548152602001600182016040518060600160405290816000820160009054906101000a900473ffffffffffffffffffffffffffffffffffffffff1673ffffffffffffffffffffffffffffffffffffffff1673ffffffffffffffffffffffffffffffffffffffff1681526020016000820160149054906101000a900460ff16600281111561046e57fe5b600281111561047957fe5b8152602001600182018054806020026020016040519081016040528092919081815260200182805480156104cc57602002820191906000526020600020905b8154815260200190600101908083116104b8575b5050505050815250508152602001600382016040518060600160405290816000820160009054906101000a900473ffffffffffffffffffffffffffffffffffffffff1673ffffffffffffffffffffffffffffffffffffffff1673ffffffffffffffffffffffffffffffffffffffff1681526020016000820160149054906101000a900460ff16600281111561055d57fe5b600281111561056857fe5b8152602001600182018054806020026020016040519081016040528092919081815260200182805480156105bb57602002820191906000526020600020905b8154815260200190600101908083116105a7575b5050505050815250508152602001600582018054600181600116156101000203166002900480601f0160208091040260200160405190810160405280929190818152602001828054600181600116156101000203166002900480156106615780601f1061063657610100808354040283529160200191610661565b820191906000526020600020905b81548152906001019060200180831161064457829003601f168201915b505050505081526020016006820160009054906101000a900460ff16600481111561068857fe5b600481111561069357fe5b8152505090508273ffffffffffffffffffffffffffffffffffffffff1681602001516000015173ffffffffffffffffffffffffffffffffffffffff16146106d957600080fd5b60006106e98683606001516112c3565b905081602001516000015173ffffffffffffffffffffffffffffffffffffffff168173ffffffffffffffffffffffffffffffffffffffff1614925050509392505050565b600281565b6003602052806000526040600020600091509050806000015490806001016040518060600160405290816000820160009054906101000a900473ffffffffffffffffffffffffffffffffffffffff1673ffffffffffffffffffffffffffffffffffffffff1673ffffffffffffffffffffffffffffffffffffffff1681526020016000820160149054906101000a900460ff1660028111156107cf57fe5b60028111156107da57fe5b81526020016001820180548060200260200160405190810160405280929190818152602001828054801561082d57602002820191906000526020600020905b815481526020019060010190808311610819575b50505050508152505090806003016040518060600160405290816000820160009054906101000a900473ffffffffffffffffffffffffffffffffffffffff1673ffffffffffffffffffffffffffffffffffffffff1673ffffffffffffffffffffffffffffffffffffffff1681526020016000820160149054906101000a900460ff1660028111156108ba57fe5b60028111156108c557fe5b81526020016001820180548060200260200160405190810160405280929190818152602001828054801561091857602002820191906000526020600020905b815481526020019060010190808311610904575b50505050508152505090806005018054600181600116156101000203166002900480601f0160208091040260200160405190810160405280929190818152602001828054600181600116156101000203166002900480156109ba5780601f1061098f576101008083540402835291602001916109ba565b820191906000526020600020905b81548152906001019060200180831161099d57829003601f168201915b5050505050908060060160009054906101000a900460ff16905085565b600181815481106109e457fe5b906000526020600020016000915090505481565b6000610a038261139b565b90506060600267ffffffffffffffff81118015610a1f57600080fd5b50604051908082528060200260200182016040528015610a4e5781602001602082028036833780820191505090505b509050610a596116e5565b60405180606001604052808673ffffffffffffffffffffffffffffffffffffffff168152602001846002811115610a8c57fe5b815260200183815250905080600460008773ffffffffffffffffffffffffffffffffffffffff1673ffffffffffffffffffffffffffffffffffffffff16815260200190815260200160002060008201518160000160006101000a81548173ffffffffffffffffffffffffffffffffffffffff021916908373ffffffffffffffffffffffffffffffffffffffff16021790555060208201518160000160146101000a81548160ff02191690836002811115610b4257fe5b02179055506040820151816001019080519060200190610b63929190611727565b509050507ff5a37da00f0e4029ee2682b1919ee55d7e6f9d7492237aad9bd1aea7d53d4874816000015185604051610b9c9291906121a3565b60405180910390a15050505050565b6000610bb56116e5565b600460008873ffffffffffffffffffffffffffffffffffffffff1673ffffffffffffffffffffffffffffffffffffffff1681526020019081526020016000206040518060600160405290816000820160009054906101000a900473ffffffffffffffffffffffffffffffffffffffff1673ffffffffffffffffffffffffffffffffffffffff1673ffffffffffffffffffffffffffffffffffffffff1681526020016000820160149054906101000a900460ff166002811115610c7357fe5b6002811115610c7e57fe5b815260200160018201805480602002602001604051908101604052809291908181526020018280548015610cd157602002820191906000526020600020905b815481526020019060010190808311610cbd575b505050505081525050905060006002811115610ce957fe5b81602001516002811115610cf957fe5b14610d0357600080fd5b610d0b6116e5565b600460008873ffffffffffffffffffffffffffffffffffffffff1673ffffffffffffffffffffffffffffffffffffffff1681526020019081526020016000206040518060600160405290816000820160009054906101000a900473ffffffffffffffffffffffffffffffffffffffff1673ffffffffffffffffffffffffffffffffffffffff1673ffffffffffffffffffffffffffffffffffffffff1681526020016000820160149054906101000a900460ff166002811115610dc957fe5b6002811115610dd457fe5b815260200160018201805480602002602001604051908101604052809291908181526020018280548015610e2757602002820191906000526020600020905b815481526020019060010190808311610e13575b505050505081525050905060016002811115610e3f57fe5b81602001516002811115610e4f57fe5b14610e5957600080fd5b6000610e64876114c1565b9050600080805490509050610e7761169f565b6040518060a00160405280838152602001868152602001858152602001888152602001846004811115610ea657fe5b8152509050600080805490509080600181540180825580915050600190039060005260206000200160009091909190915055806003600060016000805490500381526020019081526020016000206000820151816000015560208201518160010160008201518160000160006101000a81548173ffffffffffffffffffffffffffffffffffffffff021916908373ffffffffffffffffffffffffffffffffffffffff16021790555060208201518160000160146101000a81548160ff02191690836002811115610f7257fe5b02179055506040820151816001019080519060200190610f93929190611727565b50505060408201518160030160008201518160000160006101000a81548173ffffffffffffffffffffffffffffffffffffffff021916908373ffffffffffffffffffffffffffffffffffffffff16021790555060208201518160000160146101000a81548160ff0219169083600281111561100a57fe5b0217905550604082015181600101908051906020019061102b929190611727565b505050606082015181600501908051906020019061104a929190611774565b5060808201518160060160006101000a81548160ff0219169083600481111561106f57fe5b02179055509050508973ffffffffffffffffffffffffffffffffffffffff168b73ffffffffffffffffffffffffffffffffffffffff167fc9e3e855764ebb21ed83dcdf8ed5e1398c752d6446308e092c28a84a77a199bd6001600080549050036040516110dc9190612273565b60405180910390a36001600080549050039550505050505095945050505050565b60006060600267ffffffffffffffff8111801561111957600080fd5b506040519080825280602002602001820160405280156111485781602001602082028036833780820191505090505b5090506000600180549050905061115d6117f4565b60405180608001604052808381526020018781526020018673ffffffffffffffffffffffffffffffffffffffff16815260200184815250905080600260008481526020019081526020016000206000820151816000015560208201518160010190805190602001906111d0929190611832565b5060408201518160020160006101000a81548173ffffffffffffffffffffffffffffffffffffffff021916908373ffffffffffffffffffffffffffffffffffffffff1602179055506060820151816003019080519060200190611234929190611727565b509050506001829080600181540180825580915050600190039060005260206000200160009091909190915055806040015173ffffffffffffffffffffffffffffffffffffffff167fe85391abb5e51659c581dd95107048251657ee66755655cc08c9c0ec3a0a913982600001516040516112af9190612273565b60405180910390a281935050505092915050565b6000806000806112d28561166d565b92509250925060606040518060400160405280601c81526020017f19457468657265756d205369676e6564204d6573736167653a0a333200000000815250905060008188604051602001611327929190612093565b6040516020818303038152906040528051906020012090506001818686866040516000815260200160405260405161136294939291906121ee565b6020604051602081039080840390855afa158015611384573d6000803e3d6000fd5b505050602060405103519550505050505092915050565b600080826040516020016113af91906120bb565b60405160208183030381529060405280519060200120905060006040516020016113d8906120fc565b604051602081830303815290604052805190602001209050600060405160200161140190612150565b604051602081830303815290604052805190602001209050600060405160200161142a9061213b565b604051602081830303815290604052805190602001209050828414156114575760009450505050506114bc565b8184141561146c5760019450505050506114bc565b808414156114815760029450505050506114bc565b6040517f08c379a00000000000000000000000000000000000000000000000000000000081526004016114b390612233565b60405180910390fd5b919050565b600080826040516020016114d591906120bb565b60405160208183030381529060405280519060200120905060006040516020016114fe906120e7565b604051602081830303815290604052805190602001209050600060405160200161152790612126565b6040516020818303038152906040528051906020012090506000604051602001611550906120d2565b604051602081830303815290604052805190602001209050600060405160200161157990612111565b60405160208183030381529060405280519060200120905060006040516020016115a290612165565b604051602081830303815290604052805190602001209050848614156115d15760009650505050505050611668565b838614156115e85760019650505050505050611668565b828614156115ff5760029650505050505050611668565b818614156116165760039650505050505050611668565b8086141561162d5760049650505050505050611668565b6040517f08c379a000000000000000000000000000000000000000000000000000000000815260040161165f90612253565b60405180910390fd5b919050565b6000806000604184511461168057600080fd5b6020840151915060408401519050606084015160001a92509193909250565b6040518060a00160405280600081526020016116b96116e5565b81526020016116c66116e5565b815260200160608152602001600060048111156116df57fe5b81525090565b6040518060600160405280600073ffffffffffffffffffffffffffffffffffffffff1681526020016000600281111561171a57fe5b8152602001606081525090565b828054828255906000526020600020908101928215611763579160200282015b82811115611762578251825591602001919060010190611747565b5b50905061177091906118b2565b5090565b828054600181600116156101000203166002900490600052602060002090601f016020900481019282601f106117b557805160ff19168380011785556117e3565b828001600101855582156117e3579182015b828111156117e25782518255916020019190600101906117c7565b5b5090506117f091906118b2565b5090565b60405180608001604052806000815260200160608152602001600073ffffffffffffffffffffffffffffffffffffffff168152602001606081525090565b828054600181600116156101000203166002900490600052602060002090601f016020900481019282601f1061187357805160ff19168380011785556118a1565b828001600101855582156118a1579182015b828111156118a0578251825591602001919060010190611885565b5b5090506118ae91906118b2565b5090565b5b808211156118cb5760008160009055506001016118b3565b5090565b6000813590506118de81612560565b92915050565b6000813590506118f381612577565b92915050565b600082601f83011261190a57600080fd5b813561191d61191882612361565b612334565b9150808252602083016020830185838301111561193957600080fd5b6119448382846124e9565b50505092915050565b600082601f83011261195e57600080fd5b813561197161196c8261238d565b612334565b9150808252602083016020830185838301111561198d57600080fd5b6119988382846124e9565b50505092915050565b6000813590506119b08161258e565b92915050565b6000602082840312156119c857600080fd5b60006119d6848285016118cf565b91505092915050565b600080600080600060a086880312156119f757600080fd5b6000611a05888289016118cf565b9550506020611a16888289016118cf565b945050604086013567ffffffffffffffff811115611a3357600080fd5b611a3f8882890161194d565b9350506060611a50888289016119a1565b925050608086013567ffffffffffffffff811115611a6d57600080fd5b611a79888289016118f9565b9150509295509295909350565b60008060408385031215611a9957600080fd5b6000611aa7858286016118cf565b925050602083013567ffffffffffffffff811115611ac457600080fd5b611ad08582860161194d565b9150509250929050565b600080600060608486031215611aef57600080fd5b6000611afd868287016118e4565b9350506020611b0e868287016119a1565b9250506040611b1f868287016118cf565b9150509250925092565b60008060408385031215611b3c57600080fd5b600083013567ffffffffffffffff811115611b5657600080fd5b611b628582860161194d565b9250506020611b73858286016118cf565b9150509250929050565b600060208284031215611b8f57600080fd5b6000611b9d848285016119a1565b91505092915050565b6000611bb28383612066565b60208301905092915050565b611bc781612440565b82525050565b611bd681612440565b82525050565b6000611be7826123c9565b611bf181856123f7565b9350611bfc836123b9565b8060005b83811015611c2d578151611c148882611ba6565b9750611c1f836123ea565b925050600181019050611c00565b5085935050505092915050565b611c4381612452565b82525050565b611c528161245e565b82525050565b611c69611c648261245e565b61252b565b82525050565b6000611c7a826123d4565b611c848185612408565b9350611c948185602086016124f8565b611c9d81612535565b840191505092915050565b6000611cb3826123d4565b611cbd8185612419565b9350611ccd8185602086016124f8565b80840191505092915050565b611ce2816124c5565b82525050565b611cf1816124c5565b82525050565b611d00816124d7565b82525050565b6000611d11826123df565b611d1b8185612424565b9350611d2b8185602086016124f8565b611d3481612535565b840191505092915050565b6000611d4a826123df565b611d548185612435565b9350611d648185602086016124f8565b80840191505092915050565b6000611d7d601c83612424565b91507f726563656976656420696e76616c696420656e74697479206d6f6465000000006000830152602082019050919050565b6000611dbd600683612435565b91507f53544f52454400000000000000000000000000000000000000000000000000006000830152600682019050919050565b6000611dfd600c83612435565b91507f4d414e55464143545552454400000000000000000000000000000000000000006000830152600c82019050919050565b6000611e3d600683612435565b91507f49535355455200000000000000000000000000000000000000000000000000006000830152600682019050919050565b6000611e7d601083612435565b91507f44454c49564552494e475f4c4f43414c000000000000000000000000000000006000830152601082019050919050565b6000611ebd601883612435565b91507f44454c49564552494e475f494e5445524e4154494f4e414c00000000000000006000830152601882019050919050565b6000611efd600883612435565b91507f56455249464945520000000000000000000000000000000000000000000000006000830152600882019050919050565b6000611f3d600683612435565b91507f50524f56455200000000000000000000000000000000000000000000000000006000830152600682019050919050565b6000611f7d600983612435565b91507f44454c49564552454400000000000000000000000000000000000000000000006000830152600982019050919050565b6000611fbd602383612424565b91507f726563656976656420696e76616c69642063657274696669636174652073746160008301527f74757300000000000000000000000000000000000000000000000000000000006020830152604082019050919050565b600060608301600083015161202e6000860182611bbe565b5060208301516120416020860182611cd9565b50604083015184820360408601526120598282611bdc565b9150508091505092915050565b61206f816124ae565b82525050565b61207e816124ae565b82525050565b61208d816124b8565b82525050565b600061209f8285611ca8565b91506120ab8284611c58565b6020820191508190509392505050565b60006120c78284611d3f565b915081905092915050565b60006120dd82611db0565b9150819050919050565b60006120f282611df0565b9150819050919050565b600061210782611e30565b9150819050919050565b600061211c82611e70565b9150819050919050565b600061213182611eb0565b9150819050919050565b600061214682611ef0565b9150819050919050565b600061215b82611f30565b9150819050919050565b600061217082611f70565b9150819050919050565b600060408201905061218f6000830185611bcd565b61219c6020830184611ce8565b9392505050565b60006040820190506121b86000830185611bcd565b81810360208301526121ca8184611d06565b90509392505050565b60006020820190506121e86000830184611c3a565b92915050565b60006080820190506122036000830187611c49565b6122106020830186612084565b61221d6040830185611c49565b61222a6060830184611c49565b95945050505050565b6000602082019050818103600083015261224c81611d70565b9050919050565b6000602082019050818103600083015261226c81611fb0565b9050919050565b60006020820190506122886000830184612075565b92915050565b60006060820190506122a36000830186612075565b81810360208301526122b58185611d06565b90506122c46040830184611bcd565b949350505050565b600060a0820190506122e16000830188612075565b81810360208301526122f38187612016565b905081810360408301526123078186612016565b9050818103606083015261231b8185611c6f565b905061232a6080830184611cf7565b9695505050505050565b6000604051905081810181811067ffffffffffffffff8211171561235757600080fd5b8060405250919050565b600067ffffffffffffffff82111561237857600080fd5b601f19601f8301169050602081019050919050565b600067ffffffffffffffff8211156123a457600080fd5b601f19601f8301169050602081019050919050565b6000819050602082019050919050565b600081519050919050565b600081519050919050565b600081519050919050565b6000602082019050919050565b600082825260208201905092915050565b600082825260208201905092915050565b600081905092915050565b600082825260208201905092915050565b600081905092915050565b600061244b8261248e565b9050919050565b60008115159050919050565b6000819050919050565b600081905061247682612546565b919050565b600081905061248982612553565b919050565b600073ffffffffffffffffffffffffffffffffffffffff82169050919050565b6000819050919050565b600060ff82169050919050565b60006124d082612468565b9050919050565b60006124e28261247b565b9050919050565b82818337600083830152505050565b60005b838110156125165780820151818401526020810190506124fb565b83811115612525576000848401525b50505050565b6000819050919050565b6000601f19601f8301169050919050565b6003811061255057fe5b50565b6005811061255d57fe5b50565b61256981612440565b811461257457600080fd5b50565b6125808161245e565b811461258b57600080fd5b50565b612597816124ae565b81146125a257600080fd5b5056fea2646970667358221220b7e0f77d1f4cabae8aeff6e743d07dcffd546a4164bc13070827fdbecbde5e2464736f6c63430007000033",
  "immutableReferences": {},
  "source": "pragma solidity >=0.7.0 <0.9.0;\r\npragma experimental ABIEncoderV2;\r\n\r\nlibrary CryptoSuite{\r\n    function splitSignature(bytes memory sig) internal pure returns(uint8 v, bytes32 r, bytes32 s) {\r\n        require(sig.length == 65);\r\n\r\n        assembly {\r\n            //first 32bytes\r\n            r := mload(add(sig, 32))\r\n\r\n            //next 32bytes\r\n            s := mload(add(sig, 64))\r\n\r\n            //last 32bytes\r\n            v := byte(0, mload(add(sig, 96)))\r\n        }\r\n\r\n        return (v,r,s);\r\n    }\r\n\r\n    function recoverSigner(bytes32 message, bytes memory sig) internal pure returns (address) {\r\n        (uint8 v, bytes32 r, bytes32 s) = splitSignature(sig);\r\n        bytes memory prefix = \"\\x19Ethereum Signed Message:\\n32\";\r\n        bytes32 prefixedHash = keccak256(abi.encodePacked(prefix, message));\r\n\r\n        return ecrecover(prefixedHash, v, r, s);\r\n    }\r\n}\r\n\r\ncontract ColdChain{\r\n\r\n    enum Mode { ISSUER, PROVER, VERIFIER }\r\n    struct Entity{\r\n        address id;\r\n        Mode mode;\r\n        uint[] certificateIds;\r\n    }\r\n\r\n    enum Status{ MANUFACTURED, DELIVERING_INTERNATIONAL, STORED, DELIVERING_LOCAL, DELIVERED }\r\n\r\n    struct Certificate {\r\n        uint id;\r\n        Entity issuer;\r\n        Entity prover;\r\n        bytes signature;\r\n        Status status;\r\n    }\r\n    \r\n    struct VaccineBatch{\r\n        uint id;\r\n        string brand;\r\n        address manufacturer;\r\n        uint[] certificateIds;\r\n    }\r\n\r\n    uint public constant MAX_CERTIFICATIONS = 2;\r\n\r\n    uint[] public certificateIds;\r\n    uint[] public vaccineBatchIds;\r\n\r\n    mapping(uint => VaccineBatch) public vaccineBatches;\r\n    mapping(uint => Certificate) public certificates;\r\n    mapping(address => Entity) public entities;\r\n\r\n    event AddEntity(address entityId, string entityMode);\r\n    event AddVaccineBatch(uint vaccineBatchId, address indexed manufacturer);\r\n    event IssueCertificate(address indexed issuer, address indexed prover, uint certificateId);\r\n\r\n    function addEntity(address _id, string memory _mode) public {\r\n        Mode mode = unmarshalMode(_mode);\r\n        uint[] memory _certificateIds = new uint[](MAX_CERTIFICATIONS);\r\n        Entity memory entity = Entity(_id, mode, _certificateIds);\r\n        entities[_id] = entity;\r\n\r\n        emit AddEntity(entity.id, _mode);\r\n    }\r\n\r\n    function unmarshalMode(string memory _mode) private pure returns(Mode mode) {\r\n        bytes32 encodedMode = keccak256(abi.encodePacked(_mode));\r\n        bytes32 encodedMode0 = keccak256(abi.encodePacked(\"ISSUER\"));\r\n        bytes32 encodedMode1 = keccak256(abi.encodePacked(\"PROVER\"));\r\n        bytes32 encodedMode2 = keccak256(abi.encodePacked(\"VERIFIER\"));\r\n\r\n        if(encodedMode == encodedMode0) {\r\n            return Mode.ISSUER;\r\n        }\r\n        else if(encodedMode == encodedMode1) {\r\n            return Mode.PROVER;\r\n        }\r\n        else if(encodedMode == encodedMode2) {\r\n            return Mode.VERIFIER;\r\n        }\r\n\r\n        revert(\"received invalid entity mode\");\r\n    }\r\n\r\n    function addVaccineBatch(string memory brand, address manufacturer) public returns(uint) {\r\n        uint[] memory _certificateIds = new uint[](MAX_CERTIFICATIONS);\r\n        uint id = vaccineBatchIds.length;\r\n        VaccineBatch memory batch = VaccineBatch(id, brand, manufacturer, _certificateIds);\r\n        \r\n        vaccineBatches[id] = batch;\r\n        vaccineBatchIds.push(id);\r\n        \r\n        emit AddVaccineBatch(batch.id, batch.manufacturer);\r\n        return id;\r\n    }\r\n\r\n    function issueCertificate(\r\n        address _issuer, address _prover, string memory _status,\r\n        uint vaccineBatchId, bytes memory signature) public returns(uint) {\r\n            Entity memory issuer = entities[_issuer];\r\n            require(issuer.mode == Mode.ISSUER);\r\n\r\n            Entity memory prover = entities[_prover];\r\n            require(prover.mode == Mode.PROVER);\r\n\r\n            Status status = unmarshalStatus(_status);\r\n\r\n            uint id = certificateIds.length;\r\n            Certificate memory certificate = Certificate(id, issuer, prover, signature, status);\r\n\r\n            certificateIds.push(certificateIds.length);\r\n            certificates[certificateIds.length-1] = certificate;\r\n\r\n            emit IssueCertificate(_issuer, _prover, certificateIds.length-1);\r\n\r\n            return certificateIds.length-1;\r\n        }\r\n\r\n    function unmarshalStatus(string memory _status) private pure returns(Status status) {\r\n        bytes32 encodedStatus = keccak256(abi.encodePacked(_status));\r\n        bytes32 encodedStatus0 = keccak256(abi.encodePacked(\"MANUFACTURED\"));\r\n        bytes32 encodedStatus1 = keccak256(abi.encodePacked(\"DELIVERING_INTERNATIONAL\"));\r\n        bytes32 encodedStatus2 = keccak256(abi.encodePacked(\"STORED\"));\r\n        bytes32 encodedStatus3 = keccak256(abi.encodePacked(\"DELIVERING_LOCAL\"));\r\n        bytes32 encodedStatus4 = keccak256(abi.encodePacked(\"DELIVERED\"));\r\n\r\n        if(encodedStatus == encodedStatus0) {\r\n            return Status.MANUFACTURED;\r\n        }\r\n        else if(encodedStatus == encodedStatus1) {\r\n            return Status.DELIVERING_INTERNATIONAL;\r\n        }\r\n        else if(encodedStatus == encodedStatus2) {\r\n            return Status.STORED;\r\n        }\r\n        else if(encodedStatus == encodedStatus3) {\r\n            return Status.DELIVERING_LOCAL;\r\n        }\r\n        else if(encodedStatus == encodedStatus4) {\r\n            return Status.DELIVERED;\r\n        }\r\n\r\n        revert(\"received invalid certificate status\");\r\n    }\r\n\r\n    function isMatchingSignature(bytes32 message, uint id, address issuer) public view returns(bool) {\r\n        Certificate memory cert = certificates[id];\r\n        require(cert.issuer.id == issuer);\r\n\r\n        address recoveredSigner = CryptoSuite.recoverSigner(message, cert.signature);\r\n\r\n        return recoveredSigner == cert.issuer.id;\r\n    }\r\n}",
  "sourcePath": "/mnt/c/pr0/coldchain/contracts/ColdChain.sol",
  "compiler": {
    "name": "solc",
    "version": "0.7.0+commit.9e61f92b.Emscripten.clang"
  },
  "schemaVersion": "3.4.4",
  "updatedAt": "2022-02-10T16:14:39.924Z",
  "devdoc": {
    "kind": "dev",
    "methods": {},
    "version": 1
  },
  "userdoc": {
    "kind": "user",
    "methods": {},
    "version": 1
  }
}